:100000000C9462010C9493010C9493010C94930151
:100010000C9493010C9493010C9493010C94930110
:100020000C9493010C94A3070C9499070C948F07DC
:100030000C9493010C9493010C9493010C949301F0
:100040000C9493010C9493010C9493010C949301E0
:100050000C9493010C9493010C9493010C94F5056A
:100060000C9493010C9465070C943B070C9493013A
:100070000C9493010C9493010C9493010C949301B0
:100080000C9493010C9493010C9493010C949301A0
:100090000C9411070C94E7060C9493010C949301B3
:1000A0000C9493010C9493010C9493010C94930180
:1000B0000C9493010C9493010C9493010C94930170
:1000C0000C9493010C9493010C9493010C94BD0631
:1000D0000C9493060C9493010C9469060C943F06BF
:1000E0000C94930176047804BC040C0510051305E8
:1000F00018054C094F093E09420948098609530968
:1001000057095D09610965096B096F09730986095A
:1001100079097D0981090C9418050C944C090C94FB
:100120005B020C9442090C9479090C9478040C94A9
:100130006B090C9481090C946F090C945D030C9469
:1001400076040C9410050C9457090C9438020C9406
:1001500047020C942D080C9469020C9413050C941E
:1001600005030C94F4010C9465090C945D090C943E
:1001700048090C9486090C944F090C94BE020C9407
:1001800061090C9473090C947D090C945C030C9424
:10019000310C0C943E090C940C050C9453090C94EE
:1001A000BC04000020002300260029002C002F00A2
:1001B00032000001000003010601090100002100D6
:1001C000240027002A002D00300033000101000028
:1001D000040107010A0100002200250028002B006D
:1001E0002E003100340002010000050108010B015E
:1001F00005050505070508080808020202020A0AA3
:1002000008080404040401010101010101010303C0
:10021000030303030303040707070C0C0C0C0C0C6B
:100220000C0C0202020206060606060606060B0B68
:100230000B0B0B0B0B0B01021020200808102040A9
:10024000102040800201020108040201010204089A
:100250001020408080402010080402018004020128
:100260008040201008040201080402010102040871
:1002700010204080010204081020408000000A0B7A
:1002800002090C0D0E080703040100000000000025
:10029000000000000000000000000000000000005E
:1002A000000000000000000012111000000000001B
:1002B000000000000000000000000000000000003E
:1002C0000000310C11241FBECFEFD1E2DEBFCDBF45
:1002D00000E00CBF13E0A0E0B2E0ECEEF1E200E0E1
:1002E0000BBF02C007900D92AE38B107D9F726E0D8
:1002F000AEE8B3E001C01D92AC34B207E1F711E003
:10030000C2E6D1E000E006C021970109802FFE017E
:100310000E94C10EC136D10780E00807A9F70E94EC
:10032000B7090C94F4100C9400003FB7F894809136
:10033000B3039091B403A091B503B091B60326B571
:10034000A89B05C02F3F19F00196A11DB11D3FBF0D
:10035000BA2FA92F982F8827820F911DA11DB11D9B
:10036000BC01CD0142E0660F771F881F991F4A9597
:10037000D1F708958F929F92AF92BF92CF92DF9262
:10038000EF92FF926B017C010E9495014B015C0191
:10039000C114D104E104F104F1F00E949501DC01E3
:1003A000CB0188199909AA09BB09883E9340A10588
:1003B000B10570F321E0C21AD108E108F10888EE16
:1003C000880E83E0981EA11CB11CC114D104E10465
:1003D000F10419F7DDCFFF90EF90DF90CF90BF9041
:1003E000AF909F908F900895CF92DF92EF92FF92FF
:1003F0000F931F93CF93DF936C017A018B01C0E0C1
:10040000D0E0CE15DF0589F0D8016D918D01D601C0
:10041000ED91FC910190F081E02DC6011995892B99
:1004200011F47E0102C02196ECCFC701DF91CF917C
:100430001F910F91FF90EF90DF90CF900895FC01F6
:10044000A089B1898C91A689B78982FD0FC09C9142
:10045000818D8F5F8F73228D821749F0218DDF018F
:10046000A20FB11D5D969C93818F08958C91089584
:10047000FC01538D448D252F30E0842F90E0821BAA
:10048000930B541710F0CF96089501970895FC012F
:10049000918D828D981761F0828DDF01A80FB11DBB
:1004A0005D968C91928D9F5F9F73928F90E00895DF
:1004B0008FEF9FEF0895FC01918D828D981731F099
:1004C000828DE80FF11D858D90E008958FEF9FEFED
:1004D0000895FC01918D228D892F90E0805C9F4FC3
:1004E000821B91098F73992708958CEB93E00E94EA
:1004F000690221E0892B09F420E0822F089589E523
:1005000094E00E94690221E0892B09F420E0822F07
:10051000089586EF94E00E94690221E0892B09F496
:1005200020E0822F089583E995E00E94690221E08E
:10053000892B09F420E0822F0895FC01848DDF01CE
:10054000A80FB11DA35ABF4F2C91848D90E0019646
:100550008F739927848FA689B7892C93A089B18935
:100560008C9180648C93938D848D981306C002883F
:10057000F389E02D80818F7D80830895EF92FF9233
:100580000F931F93CF93DF93EC0181E0888F9B8DB6
:100590008C8D981305C0E889F989808185FD24C078
:1005A000F62E0B8D10E00F5F1F4F0F731127E02EFB
:1005B0008C8DE8120CC00FB607FCFACFE889F989D8
:1005C000808185FFF5CFCE010E949D02F1CF8B8DFA
:1005D000FE01E80FF11DE35AFF4FF0820B8FEA890D
:1005E000FB898081806207C0EE89FF896083E8898A
:1005F000F98980818064808381E090E0DF91CF91F0
:100600001F910F91FF90EF900895CF93DF93EC012E
:10061000888D8823C9F0EA89FB89808185FD05C022
:10062000A889B9898C9186FD0FC00FB607FCF5CF5C
:10063000808185FFF2CFA889B9898C9185FFEDCFA4
:10064000CE010E949D02E7CFDF91CF91089580E017
:1006500090E0892B21F00E949302811119C080E063
:1006600090E0892B21F00E948902811114C080E062
:1006700090E0892B21F00E947F0281110FC080E061
:1006800090E0892B81F00E94750281110AC00895C3
:100690000E940000E4CF0E940000E9CF0E94000009
:1006A000EECF0C940000089520E001972FEF8F3FCC
:1006B0009207D9F708950895089580E090E008958D
:1006C0006115710579F0FB0101900020E9F7319780
:1006D000AF01461B570BDC01ED91FC910280F381C9
:1006E000E02D199480E090E0089563E472E00C94AA
:1006F00060030F931F93CF93DF93EC010E9460037D
:100700008C01CE010E947503800F911FDF91CF9164
:100710001F910F9108950F931F93CF93DF93EC01D7
:10072000E881F981DB0114964D915C9115976D91EB
:100730007C910280F381E02D19958C01CE010E94FD
:100740007503800F911FDF91CF911F910F91089535
:10075000CF93DF93EC01BC0183E995E00E948B030A
:10076000BE0186EF94E00E948B03BE0189E594E010
:100770000E948B034C815D816881798180E396E0E2
:10078000DF91CF910C94F40183E995E00E94750309
:1007900086EF94E00E94750389E594E00C9475035C
:1007A0000F931F93CF93C82F811122C080910C0209
:1007B000882331F066E472E083E995E00E947903D2
:1007C0000BEA13E062E370E080E090E00E94BA017F
:1007D00061E0F80182918F010E948709F3E00F39EF
:1007E0001F0781F7C0930C02CF911F910F910895BD
:1007F0008130C1F780910C02813031F06EE472E0FB
:1008000083E995E00E9479030FE913E062E370E069
:1008100080E090E00E94BA0160E0F80181918F01D0
:100820000E948709F3E00B3A1F0781F7DBCFEF92B5
:10083000FF920F931F93CF93DF93082FE62E80E054
:100840000E94D00310E0E801F12CCE15DF0574F40E
:10085000FE01E156FC4FC017D10714F461E001C05E
:1008600060E080810E9487092196EFCFDF91CF91D0
:100870001F910F91FF90EF900895CF93DF93EC01BC
:1008800060E08E810E94870961E08E810E94870965
:1008900060E08E810E9487098BE891E00197F1F773
:1008A000DF91CF9108950E94DF10CF92DF92EF92F7
:1008B000FF920F931F93CF93DF9300D000D0CDB75B
:1008C000DEB7182F64EF71E080E090E00E94BA017B
:1008D000812F90E0FC013197E730F10508F0CBC0A3
:1008E0008827EE58FF4F8F4F0C94C10E80E095C0C3
:1008F00065E572E0CE0101960E94E508CE01019601
:100900000E94A803CE0101960E94E00880E00E94A8
:10091000D0039CE0C92ED12CE12CF12C0E94510E69
:10092000A70196010E945E0EFB01E156FC4F10816B
:1009300060E0812F0E9487096AEA70E080E090E021
:100940000E94BA0161E0812F0E9487090E944A0536
:100950006AE070E080E090E00E94BA0164E080E02C
:1009600091E00E9433088230C9F280910D028230FA
:10097000A9F26BE772E073C06DE672E0CE010196FA
:100980000E94E508CE0101960E94A803CE010196BF
:100990000E94E008F12C0F2D10E0025011098BE0AD
:1009A0008F1508F4F12C0F3FEFEF1E0739F00E3FC3
:1009B000FFEF1F0729F40AE010E002C00BE010E08F
:1009C000EF2DF0E0E156FC4F60E080810E94870946
:1009D00062E370E080E090E00E94BA01F801E15625
:1009E000FC4F61E080810E9487090E944A056CE803
:1009F00070E080E090E00E94BA01F39464E080E04F
:100A000091E00E943308833031F280910D028330EF
:100A100011F26DE872E023C081E00E94D0032BC088
:100A20006AE088E002C067E086E00E94170423C005
:100A300080E00E94D00300E012E08FE9E82E83E01E
:100A4000F82EF80111928F0160E0F70181917F018A
:100A50000E948709F2E00C301F0799F70CC0CE0105
:100A600001960E94E508CE0101960E94A803CE01DE
:100A700001960E94E00826960FB6F894DEBF0FBEDE
:100A8000CDBFDF91CF911F910F91FF90EF90DF903D
:100A9000CF9008958F929F92AF92BF92EF92FF9264
:100AA0001F93CF93DF93CDB7DEB7A1970FB6F8941E
:100AB000DEBF0FBECDBF89E594E00E946902181623
:100AC00019060CF046C089E594E00E944702809325
:100AD000900310ED180F212F30E040E050E019A2F4
:100AE0007E0181E2E80EF11C8AE0882E912CA12C77
:100AF000B12CCA01B901A50194010E94900E605D5C
:100B0000F70162937F01211531054105510589F7F0
:100B1000BF0183E995E00E94600383E995E00E94AC
:100B20007503193070F481E08093AD0310930D02CA
:100B3000612F89E594E00E94BE02812F0E94550436
:100B400008C0133631F06BE972E089E594E00E9449
:100B50007903A1960FB6F894DEBF0FBECDBFDF912B
:100B6000CF911F91FF90EF90BF90AF909F908F908B
:100B70000895CF93DF9390E0FC01EA5CFD4F249150
:100B8000FC01E051FE4F8491882361F190E0880FD1
:100B9000991FFC01E454FE4FC591D491FC01EA5227
:100BA000FE4FA591B491611109C09FB7F894888157
:100BB000209582238883EC912E230BC0623061F450
:100BC0009FB7F8943881822F809583238883EC9196
:100BD0002E2B2C939FBF06C08FB7F894E8812E2B45
:100BE00028838FBFDF91CF9108951F920F920FB688
:100BF0000F9211242F933F938F939F93AF93BF93A3
:100C00008091AF039091B003A091B103B091B20372
:100C10003091AE0323E0230F2D3720F40196A11D60
:100C2000B11D05C026E8230F0296A11DB11D20931A
:100C3000AE038093AF039093B003A093B103B0933E
:100C4000B2038091B3039091B403A091B503B09126
:100C5000B6030196A11DB11D8093B3039093B40315
:100C6000A093B503B093B603BF91AF919F918F91BD
:100C70003F912F910F900FBE0F901F9018951F92CC
:100C80000F920FB60F9211240BB60F922F933F9332
:100C90004F935F936F937F938F939F93AF93BF9384
:100CA000EF93FF938CEB93E00E949D02FF91EF91F5
:100CB000BF91AF919F918F917F916F915F914F9174
:100CC0003F912F910F900BBE0F900FBE0F901F9072
:100CD00018951F920F920FB60F9211240BB60F9218
:100CE0002F933F934F935F936F937F938F939F9334
:100CF000AF93BF93EF93FF938CEB93E00E941F029F
:100D0000FF91EF91BF91AF919F918F917F916F91E3
:100D10005F914F913F912F910F900BBE0F900FBE9F
:100D20000F901F9018951F920F920FB60F921124DB
:100D30000BB60F922F933F934F935F936F937F93D5
:100D40008F939F93AF93BF93EF93FF9389E594E0C5
:100D50000E949D02FF91EF91BF91AF919F918F9162
:100D60007F916F915F914F913F912F910F900BBEAB
:100D70000F900FBE0F901F9018951F920F920FB6F5
:100D80000F9211240BB60F922F933F934F935F93C3
:100D90006F937F938F939F93AF93BF93EF93FF9343
:100DA00089E594E00E941F02FF91EF91BF91AF91FE
:100DB0009F918F917F916F915F914F913F912F9173
:100DC0000F900BBE0F900FBE0F901F9018951F92A3
:100DD0000F920FB60F9211240BB60F922F933F93E1
:100DE0004F935F936F937F938F939F93AF93BF9333
:100DF000EF93FF9386EF94E00E949D02FF91EF91A5
:100E0000BF91AF919F918F917F916F915F914F9122
:100E10003F912F910F900BBE0F900FBE0F901F9020
:100E200018951F920F920FB60F9211240BB60F92C6
:100E30002F933F934F935F936F937F938F939F93E2
:100E4000AF93BF93EF93FF9386EF94E00E941F024E
:100E5000FF91EF91BF91AF919F918F917F916F9192
:100E60005F914F913F912F910F900BBE0F900FBE4E
:100E70000F901F9018951F920F920FB60F9211248A
:100E80000BB60F922F933F934F935F936F937F9384
:100E90008F939F93AF93BF93EF93FF9383E995E075
:100EA0000E949D02FF91EF91BF91AF919F918F9111
:100EB0007F916F915F914F913F912F910F900BBE5A
:100EC0000F900FBE0F901F9018951F920F920FB6A4
:100ED0000F9211240BB60F922F933F934F935F9372
:100EE0006F937F938F939F93AF93BF93EF93FF93F2
:100EF00083E995E00E941F02FF91EF91BF91AF91AE
:100F00009F918F917F916F915F914F913F912F9121
:100F10000F900BBE0F900FBE0F901F9018951F9251
:100F20000F920FB60F9211240F900FBE0F901F90CB
:100F300018951F920F920FB60F9211240F900FBEAB
:100F40000F901F9018951F920F920FB60F921124B9
:100F50000F900FBE0F901F901895CF92DF92EF92D7
:100F6000FF920F931F93CF93DF937C016C0187E077
:100F7000C80ED11CC0E0D0E0062F10E0B8010C2E46
:100F800002C0759567950A94E2F76170F601819148
:100F90006F010E9487092196C430D10579F7C701F6
:100FA000DF91CF911F910F91FF90EF90DF90CF9045
:100FB0000C943D04CF92DF92EF92FF920F931F9318
:100FC000CF93DF93EC01F62E642F8C810E9487096A
:100FD0008D818F3F19F060E00E9487098F850F2D6A
:100FE00010E084FF25C06E0187E0C80ED11CE12C03
:100FF000F12CB8010E2C02C0759567950A94E2F7A2
:101000006170F60181916F010E948709FFEFEF1A6D
:10101000FF0A88E0E816F10461F7CE01DF91CF9175
:101020001F910F91FF90EF90DF90CF900C943D04B3
:10103000B80184E0759567958A95E1F7CE010E9425
:10104000AD076F2DCE01DF91CF911F910F91FF90D2
:10105000EF90DF90CF900C94AD0741E00E94DA074B
:1010600081E090E00895FC0190917B00977F909340
:101070007B0081E480937C0090917A00906490934F
:101080007A0080917A0086FDFCCF209178008091D3
:10109000790030E0382B3093BB032093BA034091A2
:1010A000B8035091B903CA010A972817390728F0E5
:1010B000465F5F4F42175307C8F440E050E090E0AE
:1010C0009617A1F0DA01AE0FBF1F9F5F24173507F7
:1010D00058F02A173B0740F43093B9032093B80324
:1010E000892F9093B7030895AD01EACF8091B7039C
:1010F0000895CF92DF92EF92FF920F931F93CF93B9
:10110000DF93EC016A017B01E889F98982E0808341
:101110004115514E61057105B1F060E079E08DE354
:1011200090E0A70196010E94900E89019A0101505A
:1011300011092109310936952795179507959801C9
:1011400001151041A8F0E889F989108260E874E877
:101150008EE190E0A70196010E94900EDA01C9018C
:101160000197A109B109B695A795979587959C0117
:10117000EC85FD853083EE85FF852083188EEC8914
:10118000FD8986E08083EA89FB8980818061808394
:10119000EA89FB89808188608083EA89FB89808174
:1011A00080688083EA89FB8980818F7D8083DF91DD
:1011B000CF911F910F91FF90EF90DF90CF90089506
:1011C000FC01808191810C945E0FEF92FF920F934E
:1011D0001F93CF93DF93EC01198218821B821A822E
:1011E0001D821C8261157105A9F17B01FB01019033
:1011F0000020E9F731978F01061B170BB8016F5FCD
:101200007F4F80E090E00E94F60F009759F099839D
:1012100088831B830A832C813D81232B81F4FC016D
:1012200010820DC088819981009711F00E945E0F95
:10123000198218821D821C821B821A820BC01D8398
:101240000C83B701DF91CF911F910F91FF90EF9029
:101250000C94ED10DF91CF911F910F91FF90EF90C3
:10126000089590E0FC013197E231F10508F04EC09D
:101270008827E758FF4F8F4F0C94C10E8091800054
:101280008F7703C0809180008F7D809380000895C8
:1012900080918000877FF9CF84B58F7702C084B5B5
:1012A0008F7D84BD08958091B0008F7703C08091B9
:1012B000B0008F7D8093B0000895809190008F776B
:1012C00007C0809190008F7D03C080919000877F40
:1012D0008093900008958091A0008F7707C080913F
:1012E000A0008F7D03C08091A000877F8093A00025
:1012F0000895809120018F7707C0809120018F7D14
:1013000003C080912001877F8093200108951F935F
:10131000CF93DF93282F30E0F901E458FD4F8491FB
:10132000F901EA5CFD4FD491F901E051FE4FC491FF
:10133000CC23C9F0162F81110E943109EC2FF0E067
:10134000EE0FFF1FEA52FE4FA591B4918FB7F894AC
:10135000111105C09C91ED2FE095E92302C0EC919D
:10136000ED2BEC938FBFDF91CF911F910895CF9319
:10137000DF93CDB7DEB72C970FB6F894DEBF0FBE64
:10138000CDBF789484B5826084BD84B5816084BD0E
:1013900085B5826085BD85B5816085BD80916E0013
:1013A000816080936E001092810080918100826044
:1013B0008093810080918100816080938100809181
:1013C00080008160809380008091B1008460809370
:1013D000B1008091B00081608093B0008091910055
:1013E0008260809391008091910081608093910050
:1013F000809190008160809390008091A100826034
:101400008093A1008091A10081608093A1008091D0
:10141000A00081608093A000809121018260809370
:10142000210180912101816080932101809120011F
:1014300081608093200180917A00846080937A009B
:1014400080917A00826080937A0080917A00816036
:1014500080937A0080917A00806880937A0010925D
:10146000C10064EF71E080E090E00E94BA0140E0CA
:1014700052EC61E070E083E995E00E94790840E871
:1014800055E260E070E086EF94E00E94790840E861
:1014900055E260E070E089E594E00E94790840E858
:1014A00055E260E070E08CEB93E00E9479081092C6
:1014B0009D0310929C0310929B0310929A0310922A
:1014C000960310929703109298031092990310922A
:1014D000920310929303109294031092950310922A
:1014E0009E031092BB031092BA031092B90310929C
:1014F000B8031092B7031092910369EB72E0CE012A
:1015000001960E94E508CE0101960E94A803CE0133
:1015100001960E94E0080E94C4036BED72E0CE01C8
:1015200001960E94E508CE0101960E94A803CE0113
:1015300001960E94E0080E94C40366EF72E0CE01AB
:1015400001960E94E508CE0101960E94A803CE01F3
:1015500001960E94E00866E073E0CE0101960E94C9
:10156000E508CE0101960E94A803CE0101960E94D3
:10157000E0080E94C4036BE073E0CE0101960E9474
:10158000E508CE0101960E94A803CE0101960E94B3
:10159000E0086DE173E0CE0101960E94E508CE01FE
:1015A00001960E94A803CE0101960E94E00861E224
:1015B00073E0CE0101960E94E508CE0101960E94DB
:1015C000A803CE0101960E94E00866E273E0CE0116
:1015D00001960E94E508CE0101960E94A803CE0163
:1015E00001960E94E0086EE273E0CE0101960E942F
:1015F000E508CE0101960E94A803CE0101960E9443
:10160000E00865E373E0CE0101960E94E508CE0193
:1016100001960E94A803CE0101960E94E0086CE3A7
:1016200073E0CE0101960E94E508CE0101960E946A
:10163000A803CE0101960E94E00861E473E0CE01A8
:1016400001960E94E508CE0101960E94A803CE01F2
:1016500001960E94E00861E087E10E94B90561E01F
:1016600089E10E94B90561E08BE10E94B90561E062
:101670008DE10E94B90561E08FE10E94B90561E04A
:1016800081E20E94B90561E083E20E94B90561E050
:1016900085E20E94B90561E087E20E94B90561E038
:1016A00089E20E94B90561E08BE20E94B90561E020
:1016B0008DE20E94B90560E086E30E94B90560E012
:1016C00085E30E94B90560E087E30E94B9058CE0DC
:1016D000E9E1F2E0DE01119601900D928A95E1F7C1
:1016E000AFE9B3E0FE0131968DE08E0F91919D93AD
:1016F0008E13FCCF80E00E94D00301EB12E04BE69A
:10170000E42E42E0F42E55E2C52E52E0D52EBB2445
:10171000B394AA24AA94F8018491F7018490F60165
:1017200094909920E9F081110E943109892D90E06F
:10173000880F991F8E559E4FFC01A591B4918C91F5
:10174000882271F080919E03813031F06AE473E069
:1017500083E995E00E947903B0929E0380E00DC07A
:1017600080919E03882331F06BE573E083E995E077
:101770000E94790310929E0381E09091AD03911134
:101780002AC081110AC010920E0264E080E091E04C
:101790000E9433080E94550428C0B0920E026DE0EA
:1017A0008EE490E00E943308682E2FE9822E23E019
:1017B000922E77247394761408F051C060E0F401FF
:1017C00080810E9487097394FFEF8F1A9F0A8DE032
:1017D0007812F1CF0AC090910E02981731F0109252
:1017E000AD031092AC03A0920D020E944A058CEB4F
:1017F00093E00E9469021816190674F58CEB93E0C9
:101800000E9447028093AB0390ED992E980E682FAB
:10181000880F770B63597C4F83E995E00E94790329
:10182000692D70E062587C4F83E995E00E9479034E
:10183000E8E0E91540F0B092AD0390920D02892DD9
:101840000E94550409C0F3E69F1631F06BE972E07F
:1018500083E995E00E9479030E9427035CCF61E051
:10186000AECFCF93DF931092BF031092BE0348EE2A
:1018700053E060E070E04093C0035093C103609375
:10188000C2037093C30389E292E09093BD038093F7
:10189000BC0325E331E03093C9032093C80324E35C
:1018A00031E03093CB032093CA0320E331E030933F
:1018B000CD032093CC0321E331E03093CF03209379
:1018C000CE0322E331E03093D1032093D00326E30B
:1018D00031E03093D3032093D2031092D5031092BA
:1018E000D6031092D7031092D80310925C04109282
:1018F0005B0440935D0450935E0460935F047093B7
:10190000600490935A048093590425ED30E030939D
:1019100066042093650424ED30E03093680420933E
:10192000670420ED30E030936A042093690421EDD0
:1019300030E030936C0420936B0422ED30E0309360
:101940006E0420936D0426ED30E0309370042093F4
:101950006F04109272041092730410927404109227
:1019600075041092F9041092F8044093FA0450930D
:10197000FB046093FC047093FD049093F704809340
:10198000F6042DEC30E030930305209302052CEC97
:1019900030E0309305052093040528EC30E03093C7
:1019A00007052093060529EC30E0309309052093C4
:1019B00008052AEC30E030930B0520930A052EEC45
:1019C00030E030930D0520930C0510920F05109216
:1019D00010051092110510921205109296051092A2
:1019E00095054093970550939805609399057093DA
:1019F0009A05909394058093930585EC90E09093DD
:101A0000A00580939F0584EC90E09093A2058093BD
:101A1000A10580EC90E09093A4058093A30581EC50
:101A200090E09093A6058093A50582EC90E09093BA
:101A3000A8058093A70586EC90E09093AA05809373
:101A4000A9051092AC051092AD051092AE0510924A
:101A5000AF0510923306109232068BE392E090931A
:101A60003106809330068CE0809334068FEF8093AC
:101A700035068BE08093360685E08093370684E058
:101A80008093380683E08093390682E080933A069B
:101A900010923B0610923C0610923D0610923E06B4
:101AA00010923F0681E0809343061092440680E442
:101AB0008093450680E18093460680E58093470643
:101AC00061E08CE00E94B905809135068F3F19F0E6
:101AD00061E00E94B90561E0809136060E94B90577
:101AE000C0E0D0E080913F0684FD03C084E090E038
:101AF00002C088E090E0C817D9074CF4FE01E05D11
:101B0000F94F61E087810E94B9052196EBCF8BE305
:101B10009DE00197F1F760E0809134060E9487090B
:101B200060E0809136060E948709809135068F3FDC
:101B300019F060E00E94870960913F0664FD20C0B3
:101B400063E080E396E00E94AD07CBE4D6E4CE01EB
:101B50000197F1F763E080E396E00E94AD072197DB
:101B6000F1F763E080E396E00E94AD0783E592E041
:101B70000197F1F762E080E396E00E94AD071EC096
:101B8000606240E080E396E00E94DA078BE496E42E
:101B90000197F1F760913F06606240E080E396E0D4
:101BA0000E94DA0783E592E00197F1F760913F0622
:101BB000606240E080E396E00E94DA0760913F06B1
:101BC000606240E080E396E00E94DA0784E0809360
:101BD000400640E06CE080E396E00E94DA0740E0D7
:101BE00061E080E396E00E94DA078BE39FE10197D2
:101BF000F1F782E08093410640E066E080E396E002
:101C0000DF91CF910C94DA078F929F92AF92BF929F
:101C1000CF92DF92EF92FF92CF93DF93EC01688136
:101C200079818A819B81611571058105910521F476
:101C300064E279ED8BE597E02DE133EF41E050E090
:101C40000E945E0E49015A019B01AC01A7EAB1E472
:101C50000E947D0E6B017C01ACEEB4EFA5019401F6
:101C60000E948B0EDC01CB018C0D9D1DAE1DBF1D96
:101C7000B7FF03C00197A109B04888839983AA835D
:101C8000BB83BC01CD019F77DF91CF91FF90EF9097
:101C9000DF90CF90BF90AF909F908F9008950C945D
:101CA000040E8FE092E00C94040E60930F02709388
:101CB000100280931102909312020895052E97FB53
:101CC0001EF400940E94750E57FD07D00E94900EDE
:101CD00007FC03D04EF40C94750E5095409530954A
:101CE00021953F4F4F4F5F4F089590958095709588
:101CF00061957F4F8F4F9F4F08950E94B20EA59F11
:101D0000900DB49F900DA49F800D911D11240895F6
:101D1000B7FF0C947D0E0E947D0E821B930B0895DD
:101D2000A1E21A2EAA1BBB1BFD010DC0AA1FBB1FDF
:101D3000EE1FFF1FA217B307E407F50720F0A21B51
:101D4000B30BE40BF50B661F771F881F991F1A94BE
:101D500069F760957095809590959B01AC01BD01E8
:101D6000CF010895A29FB001B39FC001A39F700D42
:101D7000811D1124911DB29F700D811D1124911D93
:101D80000895EE0FFF1F881F8BBF0790F691E02D7F
:101D90001994CF93DF938230910510F482E090E0A4
:101DA000E0914A06F0914B0620E030E0C0E0D0E040
:101DB000309711F14081518148175907C0F04817F9
:101DC000590761F482819381209719F09B838A835C
:101DD0002BC090934B0680934A0626C021153105EF
:101DE00019F04217530718F49A01BE01DF01EF0101
:101DF0000280F381E02DDCCF2115310509F1281B8C
:101E0000390B2430310590F412968D919C911397E3
:101E10006115710521F0FB019383828304C09093C7
:101E20004B0680934A06FD01329644C0FD01E20F45
:101E3000F31F81939193225031092D933C933AC023
:101E40002091480630914906232B41F42091150238
:101E500030911602309349062093480620911302D0
:101E6000309114022115310541F42DB73EB7409150
:101E7000170250911802241B350BE0914806F0918F
:101E80004906E217F307A0F42E1B3F0B281739076A
:101E900078F0AC014E5F5F4F2417350748F04E0FC6
:101EA0005F1F50934906409348068193919302C067
:101EB000E0E0F0E0CF01DF91CF9108950F931F9301
:101EC000CF93DF93009709F48CC0FC013297138203
:101ED000128200914A0610914B060115110581F4FA
:101EE00020813181820F931F20914806309149064D
:101EF0002817390779F5F0934906E093480671C031
:101F0000D80140E050E0AE17BF0750F412962D9173
:101F10003C911397AD012115310509F1D901F3CF9A
:101F20009D01DA013383228360817181860F971FBF
:101F30008217930769F4EC0128813981260F371F36
:101F40002E5F3F4F318320838A819B8193838283DD
:101F5000452B29F4F0934B06E0934A0642C01396B2
:101F6000FC93EE931297ED01499159919E01240F34
:101F7000351FE217F30771F480819181840F951F5B
:101F8000029611969C938E938281938113969C93D3
:101F90008E931297E0E0F0E0D80112968D919C911B
:101FA0001397009719F0F8018C01F6CF8D919C9151
:101FB00098012E5F3F4F820F931F2091480630916A
:101FC00049062817390769F4309729F410924B060F
:101FD00010924A0602C0138212821093490600939F
:101FE0004806DF91CF911F910F9108956F927F92D4
:101FF0008F929F92AF92BF92CF92DF92EF92FF9219
:102000000F931F93CF93DF93EC01009789F4CB01DB
:10201000DF91CF911F910F91FF90EF90DF90CF90C4
:10202000BF90AF909F908F907F906F900C94C90E4F
:10203000FC01E60FF71F9C0122503109E217F3075C
:1020400008F4ACC0D9010D911C9111970617170720
:10205000B0F00530110508F49FC0C8010497861739
:10206000970708F499C002501109061B170B01933A
:1020700011936D937C93CF010E945E0F8DC05B0125
:10208000A01AB10A4C01800E911EA0914A06B0918F
:102090004B0640E050E0E12CF12C109709F44AC0C7
:1020A000A815B905D1F56D907C901197630182E078
:1020B000C80ED11CCA14DB0480F1A3014A195B09C4
:1020C0006A0182E0C80ED11C1296BC90129713963A
:1020D000AC91B5E0CB16D10440F0B282A38351831A
:1020E0004083D9016D937C930AC00E5F1F4FC301DB
:1020F000800F911FF90191838083EB2DFA2FE1145A
:10210000F10431F0D7011396FC93EE93129744C07B
:10211000F0934B06E0934A063FC08D919C91119736
:102120004817590708F4AC017D0112960D90BC9137
:10213000A02DB3CF80914806909149068815990546
:10214000E1F446175707C8F48091130290911402E6
:10215000009741F48DB79EB7409117025091180235
:10216000841B950BE817F907C8F4F0934906E09330
:102170004806F901718360830FC0CB010E94C90E2C
:102180007C01009759F0A801BE010E94E410CE0125
:102190000E945E0FC70104C0CE0102C080E090E043
:1021A000DF91CF911F910F91FF90EF90DF90CF9033
:1021B000BF90AF909F908F907F906F90089581E037
:1021C00090E0F8940C94F410FB01DC0102C0019043
:1021D0000D9241505040D8F70895FB01DC01019069
:0C21E0000D920020E1F70895F894FFCF65
:1021EC00000001010101000101010000FFFF0101DC
:1021FC0000000000004C06800017191B1D1F212336
:10220C002527292B2D00000000BE02F40138020501
:10221C0003690247025B02000000002D08F4015D17
:10222C00035C030D0A00416C6C206F666600416C08
:10223C006C206F6E0052616E646F6D20546F676717
:10224C006C652041637469766174656400536E61DA
:10225C006B6520737461727465640052616E646F97
:10226C006D20546F67676C65204F464600536E6156
:10227C006B652073746F70706564004572726F7259
:10228C002C20636F6D6D616E6420646F6573206EBE
:10229C006F74206578697374005265766973696F21
:1022AC006E20302E332E35202D203038204665629E
:1022BC007275617279203230313800417661696C07
:1022CC0061626C652073657269616C20636F6D6D02
:1022DC00616E64733A00446562756720636F6D6D5F
:1022EC00616E64733A00097467310047656E6572FC
:1022FC00616C20636F6D6D616E64733A00096F6E73
:10230C0000096F6666000972616E646F6D00097377
:10231C006E616B650009636F7563680009626564C3
:10232C000009616C636F686F6C00627574746F6E1A
:10233C005374617465203D204F4E00627574746F48
:10234C006E5374617465203D204F4646004F726990
:10235C0067696E616C2076616C75653A0900466937
:0E236C006E616C2076616C75653A090900009F
:00000001FF
